:100000000C9472000C9431080C9458080C949A00CB
:100010000C949A000C949A000C949A000C94D407B7
:100020000C949A000C949A000C949A000C949A00E8
:100030000C949A000C949A000C949A000C949A00D8
:100040000C9496080C949A000C94E1050C941306F9
:100050000C949A000C949A000C949A000C949A00B8
:100060000C94F00A0C949A000200000008000201AF
:10007000000003040700000000000000000102046B
:10008000081020408001020408102001020408101A
:100090002004040404040404040202020202020311
:1000A000030303030300000000250028002B0000C9
:1000B000000000240027002A007C3C3E5E2B3D3FD0
:1000C0002F5B5D3B2C2A225C001F1C1F1E1F1E1F66
:1000D0001F1E1F1E1F00B3024306C006440D6711FA
:1000E0002920C20211241FBECFEFD8E0DEBFCDBF52
:1000F00012E0A0E0B1E0EAE9FCE402C005900D9254
:10010000AC37B107D9F727E0ACE7B2E001C01D92E8
:10011000AF34B207E1F710E0C2EED0E004C022979E
:10012000FE010E940322C63DD107C9F70E94810843
:100130000C9440260C9400000F931F93CF93DF93F1
:10014000CDB7DEB72C970FB6F894DEBF0FBECDBF8C
:1001500026E040E855E260E070E08FE793E00E941F
:100160007F0560ED77E080E090E00E940F0963E199
:1001700071E08FE793E00E941A0783E793E00E9403
:10018000A72160ED77E080E090E00E940F0963E72F
:1001900073E0CE0101960E94D4208CE0FE013196DE
:1001A000A7E6B3E001900D928A95E1F763E271E072
:1001B0008FE793E00E940D076091670370916803D9
:1001C0004AE050E08FE793E00E9499076EE271E009
:1001D0008FE793E00E940D074AE050E060916903C9
:1001E0008FE793E00E9492076EE271E08FE793E061
:1001F0000E940D074AE050E060916A038FE793E0A8
:100200000E9492076CE271E08FE793E00E940D0775
:100210004AE050E060916B038FE793E00E94920701
:1002200060E371E08FE793E00E940D074AE050E041
:1002300060916C038FE793E00E94920760E371E0A6
:100240008FE793E00E940D074AE050E060916D0354
:100250008FE793E00E9492076CE372E08FE793E0F0
:100260000E941A0762E371E08FE793E00E940D0796
:1002700064E082E097E00E94821E811110C06AE46F
:1002800071E08FE793E02C960FB6F894DEBF0FBEB7
:10029000CDBFDF91CF911F910F910C941A0761E6AA
:1002A00071E08FE793E00E941A078DE190E00E94D1
:1002B00090088C0166E771E00E948B0D10937D021F
:1002C00000937C0268EE73E080E090E00E940F09EA
:1002D00083E693E00E94DE0361E081E593E00E9403
:1002E0000F0360E070E081E593E00E94070360E1A6
:1002F00070E081E593E00E940B0368EE73E080E01C
:1003000090E02C960FB6F894DEBF0FBECDBFDF9104
:10031000CF911F910F910C940F094F925F926F92A2
:100320007F928F929F92AF92BF92CF92DF92EF9285
:10033000FF920F931F93CF93DF93CDB7DEB7A297B2
:100340000FB6F894DEBF0FBECDBF81E593E00E94EB
:1003500012038C01BC0183E693E00E945904C8019A
:100360000E94940863E773E0CE0141960E94D42076
:100370008CE0FE017196A7E6B3E001900D928A959C
:10038000E1F703EA12E083E2F80111928A95E9F7B6
:1003900080916D031F928F9380916C031F928F93B6
:1003A00080916B031F928F9380916A031F928F93AA
:1003B000809169031F928F93809168038F9380913E
:1003C00067038F938EE791E09F938F931F930F9313
:1003D0000E946F2386ECE82E82E0F82E84E6F70177
:1003E00011928A95E9F745E250E060E070E083E61B
:1003F00093E00E940B040FB6F894DEBF0FBECDBF92
:10040000882309F47AC02EE732E045E250E060E04C
:1004100070E083E693E00E9434046EE772E08AE2C3
:1004200093E00E945F038AE293E00E94D0036C0194
:100430008AE293E00E945D0363E270E00E94CA02D8
:100440008C159D0509F054C08AE293E00E94930345
:10045000D62EC72EB82EA92E8AE293E00E949303CF
:100460008AE293E02F8F38A349A35AA30E948703FF
:10047000582E492E8AE293E00E948703762E672E3B
:100480008AE293E00E947B03982E892E8AE293E011
:100490000E947B038AE293E06D8F7E8F0E946E0341
:1004A000AF92BF92CF92DF925AA15F9349A14F932F
:1004B00038A13F932F8D2F934F925F926F927F922F
:1004C0008F929F927E8D7F936D8D6F939F938F936D
:1004D0001F930F9381E991E09F938F93FF92EF9287
:1004E0000E946F230FB6F894DEBF0FBECDBF15C0BC
:1004F0001F930F938EEC91E004C01F930F938AEE2D
:1005000091E09F938F93FF92EF920E946F230F9041
:100510000F900F900F900F900F9046E751E066EC10
:1005200072E080917C0290917D020E94DB0D68EE6A
:1005300073E080E090E0A2960FB6F894DEBF0FBEA5
:10054000CDBFDF91CF911F910F91FF90EF90DF9082
:10055000CF90BF90AF909F908F907F906F905F9063
:100560004F900C940F0927E040E061E083E693E0B0
:100570000E94D80381E593E00E94F8028AE293E0AA
:100580000C944C038AE293E00E943F0381E593E0E0
:100590000C94EB02CF93AC01FC018FEF9FEF9F0116
:1005A000241B350B26173707A4F42191822728E056
:1005B00030E0DC01B695A79580FF06C0CD01C1E013
:1005C0008C27C0EA9C2701C0CD012150310989F751
:1005D000E6CFCF91089528E132E0FC0131832083FA
:1005E000089528E132E0FC01318320830C949408C3
:1005F000FC0188E192E091838083128283E083830F
:100600001582148217821682118610860895FC01C5
:10061000758364830895FC01778366830895FC01E4
:10062000628308950F931F93CF93DF938C0188E02B
:1006300090E00E949208EC01FC0180E090E01192B1
:10064000019688309105D9F7F801828188838381EA
:10065000898384818A8387818C8386818D8366E008
:1006600070E0CE010E94CA029F838E83F8018087CA
:100670009187CE01DF91CF911F910F91089520E2D4
:1006800032E0FC0131832083089520E232E0FC0156
:10069000318320830C94940820E232E0FC01318302
:1006A000208320E030E0FC01E20FF31F12822F5F75
:1006B0003F4F25323105B9F708950296089520E09D
:1006C00030E0FB014191BF01FC01E20FF31F4283C7
:1006D0002F5F3F4F25323105A1F70895FC01858139
:1006E00090E0982F88272681822B6AE070E00E9494
:1006F000CB21CB010895FC01878190E0982F8827BA
:100700002085822B6AE070E00E94CB210895FC01D5
:10071000838590E0982F88272485822B68EE73E0EC
:100720000E94CB2108950F931F93CF93DF93CDB7F2
:10073000DEB728970FB6F894DEBF0FBECDBFFC0121
:10074000638970E0762F6627058910E0102F002757
:100750008489682BCB01A0E0B0E077276627268943
:10076000022B20E030E0602B712B822B932B28EEA4
:1007700033E040E050E00E94DF2129833A834B833D
:100780005C836D837E838F83988728960FB6F89459
:10079000DEBF0FBECDBFDF91CF911F910F910895A6
:1007A000FC0186A190E0982F882725A1822B08952F
:1007B000FC0160834183228313820895CF93DF93EA
:1007C000EC0126E040E855E260E070E08FE793E05E
:1007D0000E947F0561E088810E949B0960E0898119
:1007E0000E949B0961E08A810E949B098FE793E048
:1007F0000E949C04181619062CF48FE793E00E94BF
:10080000B504F4CF61E08A810E94D40981E08B8332
:10081000DF91CF9108950F931F93CF93DF9300D073
:1008200000D0CDB7DEB78FE793E049835A836B835F
:100830007C830E949C048C01222717FD2095322F77
:1008400081E049815A816B817C8104171507260755
:10085000370709F080E00F900F900F900F90DF9115
:10086000CF911F910F910895CF92DF92EF92FF9257
:10087000CF93DF93E901C12CD12C76018FE793E070
:100880000E949C04181619065CF48FE793E00E94FE
:10089000B50489938FEFC81AD80AE80AF80AEECF90
:1008A000C701B601DF91CF91FF90EF90DF90CF901D
:1008B0000895CF92DF92FF920F931F93CF93DF9310
:1008C0001F92CDB7DEB78C01F62E61E0FC0182816C
:1008D00079830E94D409CF2C7981D72E88E0F82E15
:1008E000F60161916F018FE793E00E941A05FA9477
:1008F000B9F78091C00086FFFCCF60E0F8018281EB
:100900000E94D4098FE793E00E949C0418161906F0
:100910002CF48FE793E00E94B504F4CF6AEA70E00C
:1009200080E090E00F90DF91CF911F910F91FF90A9
:10093000DF90CF900C940F09FC01818D228D90E007
:10094000805C9F4F821B91098F7399270895FC014A
:10095000918D828D981731F0828DE80FF11D858D74
:1009600090E008958FEF9FEF0895FC01918D828DA7
:10097000981761F0828DDF01A80FB11D5D968C91F3
:10098000928D9F5F9F73928F90E008958FEF9FEFFE
:10099000089589E396E0892B49F080E090E0892B67
:1009A00029F00E94390681110C9400000895FC0181
:1009B000848DDF01A80FB11DA35ABF4F2C91848DE8
:1009C00090E001968F739927848FA689B7892C931D
:1009D000A089B1898C9180648C93938D848D9813B8
:1009E00006C00288F389E02D80818F7D8083089581
:1009F000CF93DF93EC01888D8823C9F0EA89FB89C6
:100A0000808185FD05C0A889B9898C9186FD0FC0BC
:100A10000FB607FCF5CF808185FFF2CFA889B98991
:100A20008C9185FFEDCFCE010E94D704E7CFDF91F7
:100A3000CF910895CF92DF92FF920F931F93CF93A0
:100A4000DF931F92CDB7DEB76C0181E0D6015896D7
:100A50008C9358975B969C915B975C968C915C9776
:100A6000981307C05096ED91FC915197808185FDB8
:100A70002EC0F601038D10E00F5F1F4F0F7311277B
:100A8000F02EF601848DF81211C00FB607FCF9CFD5
:100A9000D6015096ED91FC915197808185FFF1CF61
:100AA000C60169830E94D7046981EBCF838DE80F6B
:100AB000F11DE35AFF4F6083D6015B960C935B9761
:100AC0005296ED91FC915397808180620CC0D601C3
:100AD0005696ED91FC91579760835096ED91FC915D
:100AE000519780818064808381E090E00F90DF9156
:100AF000CF911F910F91FF90DF90CF900895BF92FB
:100B0000CF92DF92EF92FF92CF93DF93EC016A01D5
:100B10007B01B22EE889F98982E08083411581EE5C
:100B2000580761057105A1F060E079E08DE390E080
:100B3000A70196010E94DF21215031094109510985
:100B40005695479537952795211580E1380798F0F8
:100B5000E889F989108260E874E88EE190E0A701E5
:100B600096010E94DF212150310941095109569512
:100B7000479537952795EC85FD853083EE85FF8574
:100B80002083188EEC89FD89B082EA89FB898081F7
:100B900080618083EA89FB89808188608083EA891B
:100BA000FB89808180688083EA89FB8980818F7DD1
:100BB0008083DF91CF91FF90EF90DF90CF90BF9037
:100BC00008951F920F920FB60F9211242F938F93B7
:100BD0009F93EF93FF93E0918F03F09190038081B7
:100BE000E0919503F091960382FD12C0908180916F
:100BF00098038F5F8F7320919903821751F0E091D2
:100C00009803F0E0E158FC4F958F8093980301C062
:100C10008081FF91EF919F918F912F910F900FBE47
:100C20000F901F9018951F920F920FB60F921124DC
:100C30002F933F934F935F936F937F938F939F93E4
:100C4000AF93BF93EF93FF938FE793E00E94D70496
:100C5000FF91EF91BF91AF919F918F917F916F9194
:100C60005F914F913F912F910F900FBE0F901F906A
:100C700018958FE793E00E949C0421E0892B09F4EA
:100C800020E0822F0895109282031092810388EE53
:100C900093E0A0E0B0E08093830390938403A0935B
:100CA0008503B093860388E292E09093800380935B
:100CB0007F0385EC90E090938C0380938B0384EC0E
:100CC00090E090938E0380938D0380EC90E090935E
:100CD000900380938F0381EC90E090939203809334
:100CE000910382EC90E0909394038093930386ECBD
:100CF00090E090939603809395031092980310923E
:100D0000990310929A0310929B030895AF92BF9299
:100D1000CF92DF92EF92FF920F931F93CF93DF93C7
:100D20006C017B01C0E0D0E000E010E0F601EC0FC8
:100D3000FD1F4AE050E06281C7010E9492075C01FA
:100D40006EE2C7010E940F078A0D9B1D080F191F35
:100D50002196C330D10551F74AE050E0F601658194
:100D6000C7010E949207800F911FDF91CF911F91C1
:100D70000F91FF90EF90DF90CF90BF90AF900895CC
:100D800088E392E090931D0480931C0410921E044B
:100D900010921F0410922004109221040895CF9203
:100DA000DF92EF92FF920F931F93CF93DF937C011B
:100DB0006A01EB0100E010E00C151D0571F069916E
:100DC000D701ED91FC910190F081E02DC7010995CB
:100DD000892B19F00F5F1F4FEFCFC801DF91CF9123
:100DE0001F910F91FF90EF90DF90CF9008956115C4
:100DF000710581F0DB010D900020E9F7AD01415054
:100E00005109461B570BDC01ED91FC910280F381E7
:100E1000E02D099480E090E008950C94F706DC0141
:100E2000ED91FC910190F081E02D09946AE372E06C
:100E30000C94F7060F931F93CF93DF93EC010E945E
:100E4000F7068C01CE010E941607800F911FDF91DB
:100E5000CF911F910F9108958F929F92AF92BF9261
:100E6000CF92DF92EF92FF920F931F93CF93DF9376
:100E7000CDB7DEB7A1970FB6F894DEBF0FBECDBFDA
:100E80007C01C42EE52FCB01D22E19A221E02D1515
:100E900010F02AE0D22E8E010F5D1F4F8D2C912C69
:100EA000A12CB12C6C2D7E2FA50194010E94DF2175
:100EB0008C2DD29E80191124015011098A3014F40E
:100EC000805D01C0895CF8018083211531054105F1
:100ED000510521F0C22EE32FCA01E4CFB801C701AA
:100EE0000E94F706A1960FB6F894DEBF0FBECDBFE5
:100EF000DF91CF911F910F91FF90EF90DF90CF90F6
:100F0000BF90AF909F908F9008952115310541F4C7
:100F1000DC01ED91FC910190F081E02D642F0994AA
:100F20000C942C079A01462F50E060E070E00C947E
:100F300085079A01AB0160E070E00C948507813071
:100F400039F018F0823051F0089510926E00089533
:100F500080916F008D7F80936F0008958091700065
:100F60008D7F8093700081E08093B0008091B1000C
:100F7000887F84608093B1001092B3000895CF936E
:100F8000C82F80910A018C1307C0E8E6F0E0849135
:100F90009FEF90930A0101C08FEF0E949F0760E0CE
:100FA0008C2FCF910C94D4091F920F920FB60F92F1
:100FB00011242F933F934F935F936F937F938F935E
:100FC0009F93AF93BF93EF93FF93809125049091EC
:100FD0002604A0912704B0912804892B8A2B8B2BFF
:100FE00051F190912204E0912304F0912404808136
:100FF000892780838091250490912604A09127045D
:10100000B0912804181619061A061B06C4F480911C
:10101000250490912604A0912704B09128040197FB
:10102000A109B1098093250490932604A093270475
:10103000B093280404C080910A010E94BF07FF9169
:10104000EF91BF91AF919F918F917F916F915F9140
:101050004F913F912F910F900FBE0F901F901895B9
:1010600008951F920F920FB60F9211242F933F9362
:101070004F935F936F937F938F939F93AF93BF93A0
:10108000EF93FF93E0910B01F0910C010995FF9113
:10109000EF91BF91AF919F918F917F916F915F91F0
:1010A0004F913F912F910F900FBE0F901F90189569
:1010B0001F920F920FB60F9211242F933F934F93CD
:1010C0005F936F937F938F939F93AF93BF93EF93B0
:1010D000FF93E0910D01F0910E010995FF91EF91C1
:1010E000BF91AF919F918F917F916F915F914F9140
:1010F0003F912F910F900FBE0F901F90189508955C
:1011000008950E9437090E9480080E949C00C9EC43
:10111000D4E00E948D012097E1F30E94C904F9CF29
:101120000C9421220C9421220C94B9221F920F922C
:101130000FB60F9211242F933F938F939F93AF93EA
:10114000BF9380912A0490912B04A0912C04B0911C
:101150002D043091290423E0230F2D3720F401962C
:10116000A11DB11D05C026E8230F0296A11DB11DCA
:101170002093290480932A0490932B04A0932C0499
:10118000B0932D0480912E0490912F04A0913004EF
:10119000B09131040196A11DB11D80932E0490934E
:1011A0002F04A0933004B0933104BF91AF919F916D
:1011B0008F913F912F910F900FBE0F901F90189518
:1011C0002FB7F89460912A0470912B0480912C041D
:1011D00090912D042FBF08953FB7F89480912E046D
:1011E00090912F04A0913004B091310426B5A89BB2
:1011F00005C02F3F19F00196A11DB11D3FBF662705
:10120000782F892F9A2F620F711D811D911D42E049
:10121000660F771F881F991F4A95D1F70895CF92BF
:10122000DF92EF92FF92CF93DF936B017C010E94DC
:10123000EC08EB01C114D104E104F10489F00E942F
:101240007F080E94EC086C1B7D0B683E734090F396
:1012500081E0C81AD108E108F108C851DC4FEACF93
:10126000DF91CF91FF90EF90DF90CF900895789429
:1012700084B5826084BD84B5816084BD85B582609B
:1012800085BD85B5816085BDEEE6F0E08081816039
:101290008083E1E8F0E01082808182608083808139
:1012A00081608083E0E8F0E0808181608083E1EB11
:1012B000F0E0808184608083E0EBF0E080818160F9
:1012C0008083EAE7F0E080818460808380818260AF
:1012D0008083808181608083808180688083109298
:1012E000C1000895833081F028F4813099F0823074
:1012F000A1F008958730A9F08830B9F08430D1F496
:10130000809180008F7D03C0809180008F778093D3
:101310008000089584B58F7702C084B58F7D84BD29
:1013200008958091B0008F7703C08091B0008F7DC9
:101330008093B0000895CF93DF9390E0FC01E358D1
:10134000FF4F2491FC01EF56FF4F8491882349F110
:1013500090E0880F991FFC01E155FF4FA591B491D2
:101360008B559F4FFC01C591D4919FB7611108C067
:10137000F8948C91209582238C93888182230AC0D3
:10138000623051F4F8948C91322F309583238C93F2
:101390008881822B888304C0F8948C91822B8C9353
:1013A0009FBFDF91CF9108950F931F93CF93DF934A
:1013B0001F92CDB7DEB7282F30E0F901E759FF4F74
:1013C0008491F901E358FF4F1491F901EF56FF4F53
:1013D00004910023C9F0882321F069830E947209D7
:1013E0006981E02FF0E0EE0FFF1FEB55FF4FA59155
:1013F000B4919FB7F8948C91611103C0109581232B
:1014000001C0812B8C939FBF0F90DF91CF911F91D3
:101410000F91089510929F0481E080939D04109293
:101420009C0461E082E10E94D40961E083E10E94B2
:10143000D409E9EBF0E080818E7F808380818D7F0D
:10144000808388E48093B80085E48093BC0008958D
:10145000413208F043C090919F049111FCCF91E07C
:1014600090939F0420939D042FEF209332041092B9
:101470007704240F2093760490939E0490919E0409
:10148000880F892B80939E0480919C04813061F4A5
:1014900010929C0480919E048093BB008091BC00BC
:1014A00083FDF8CF85EC01C085EE8093BC00809170
:1014B0009F048130E1F380917704841710F4409108
:1014C000770428E734E0FB01D9018A2F821B8417B7
:1014D00018F48D918193F9CF842F089580E00895B9
:1014E0000F93413208F04AC090919F049111FCCFB4
:1014F00092E090939F0400939D049FEF9093320499
:101500001092770440937604FB0168E774E0DB01F6
:101510009A2F961B941718F491919D93F9CF1092DE
:101520009E0490919E04880F892B80939E04809145
:101530009C04813061F410929C0480919E048093FD
:10154000BB008091BC0083FDF8CF85EC01C085EE27
:101550008093BC00222321F080919F048230E1F32C
:10156000809132048F3F61F080913204803251F0DB
:1015700080913204803341F483E007C081E005C0EC
:1015800080E003C082E001C084E00F9108956132E1
:1015900098F420919F04243089F460935404FC0152
:1015A00086E594E0DC012A2F281B261718F42191E8
:1015B0002D93F9CF80E0089581E0089582E00895A9
:1015C00085ED8093BC008091BC0084FDFCCF10921F
:1015D0009F04089585EC8093BC0010929F040895A9
:1015E0001F920F920FB60F9211242F933F934F9398
:1015F0005F936F937F938F939F93AF93BF93EF937B
:10160000FF938091B900887F803609F49EC078F5F9
:10161000883209F45DC090F4803109F456C038F482
:10162000882309F4F5C0883009F44FC0F5C088312B
:1016300009F44EC0803209F45FC0EEC0803409F472
:101640006AC058F4803309F457C0883309F0E4C005
:10165000809332040E94EA0ADFC0803509F44FC04B
:10166000883509F45DC0883409F0D6C0D3C0883904
:1016700009F4C4C0A8F4883709F467C038F4883680
:1016800009F463C0803709F460C0C6C0883809F423
:10169000B5C0803909F45FC0803809F0BDC05BC0B7
:1016A000803B09F483C038F4803A09F466C0883A74
:1016B00009F47CC0B1C0803C09F4A4C0883C09F4A2
:1016C000A1C0883B09F487C0A7C080919E0410C0C8
:1016D0009091770480917604981770F5E0917704E3
:1016E00081E08E0F80937704F0E0E858FB4F808113
:1016F0008093BB0085EC83C0809332048BC0E09163
:10170000770481E08E0F809377048091BB00F0E036
:10171000E858FB4F808390917704809176046BC0EA
:10172000E091770481E08E0F809377048091BB0075
:10173000F0E0E858FB4F808380919D0481116AC0DE
:1017400081E080939C0484EA5EC083E080939F04E0
:1017500010923304CFCF80913304803208F04EC012
:10176000E091330481E08E0F809333048091BB00BD
:10177000F0E0EC5CFB4F8083BDCF0E94EA0A8091D1
:101780003304803230F4E0913304F0E0EC5CFB4F42
:1017900010826091330470E0E0919804F091990414
:1017A00084E394E009951092330436C084E080937A
:1017B0009F041092550410925404E0919A04F09101
:1017C0009B04099580915404811105C081E08093A8
:1017D000540410925604E091550481E08E0F8093DA
:1017E0005504F0E0EA5AFB4F80818093BB00909152
:1017F000550480915404981708F47CCF85E88093B1
:10180000BC000AC085EC8093BC0010929F0404C009
:10181000109232040E94E00AFF91EF91BF91AF91C4
:101820009F918F917F916F915F914F913F912F91F8
:101830000F900FBE0F901F9018958091D00490E0EC
:101840002091D104821B910908952091D1048091A7
:10185000D004281750F4E22FF0E0EE52FB4F8081C5
:1018600090E02F5F2093D10408958FEF9FEF0895AC
:10187000E091D1048091D004E81730F4F0E0EE520A
:10188000FB4F808190E008958FEF9FEF08950895BA
:10189000CF92DF92EF92FF920F931F93CF93DF933C
:1018A0007C01CB018A012091AC04222389F0EB0159
:1018B0006B01C40ED51ECC15DD0569F06991D70109
:1018C000ED91FC910190F081E02DC7010995F3CFD6
:1018D000642F0E94C70AC801DF91CF911F910F9119
:1018E000FF90EF90DF90CF900895CF93DF931F92FA
:1018F000CDB7DEB769832091AC042223D1F02091CB
:10190000AD04203240F021E030E0FC01338322833B
:1019100080E090E015C08091AE04E82FF0E0E15542
:10192000FB4F998190838F5F8093AE048093AD04C9
:1019300005C061E0CE0101960E94C70A81E090E0F7
:101940000F90DF91CF910895FC011382128248EE2F
:1019500053E060E070E044835583668377838DE4D1
:1019600092E09183808308951092D1041092D00464
:101970001092AE041092AD040C940A0A81E0809398
:10198000AC046093CF041092AE041092AD0408959D
:101990000C94BE0C0F93062F21E04091AD046FEA2A
:1019A00074E08091CF040E94700A1092AE041092ED
:1019B000AD041092AC040F9108958F929F92AF9254
:1019C000BF92CF92DF92EF92FF920F931F93CF932C
:1019D000DF93EC01F62ED42E48015901EE2019F1C7
:1019E0000E94BE0C1E2D143008F013E01150B8F008
:1019F000E881F98128E0129FB0011124A50194012A
:101A000004C056954795379527956A95D2F7CA0130
:101A1000B9010190F081E02DCE010995E7CF60E09A
:101A2000CE010E94CA0C4D2D413208F040E22C2D0F
:101A300062ED74E08F2D0E94280A1092D1048093E9
:101A4000D004DF91CF911F910F91FF90EF90DF9025
:101A5000CF90BF90AF909F908F900895CF92EF92CC
:101A60000F931F93C22EE12C00E010E098010E941A
:101A7000DD0C1F910F91EF90CF90089521E00C9411
:101A80002E0D61E00C94CA0C80EA94E00C94A40C36
:101A9000CF93CFB7F8948091F504811127C0EBE97B
:101AA000F0E08491E7E8F0E09491E82FF0E0EE0FA9
:101AB000FF1FE155FF4FA591B4918C91892321F42B
:101AC00061E08AE00E94D40961E08AE00E949B09FB
:101AD0008CB580618CBD8CB580648CBD61E08DE07F
:101AE0000E949B0961E08BE00E949B098091F504B4
:101AF0008F5F8093F504CFBFCF9108952DE532E03D
:101B0000FC013183208308952DE532E0FC0131830F
:101B100020830C949408EF92FF920F931F93CF931E
:101B2000DF93CDB7DEB76B970FB6F894DEBF0FBE6D
:101B3000CDBF8C017B012DE532E0FC012193319377
:101B4000CF010E94011E23E1A70162E077E0CE01F0
:101B500001960E949B1F8B819C81F8019583848351
:101B60008D819E81AF81B88586839783A087B18759
:101B700049855A856B857C8542875387648775873D
:101B80008DE0FE013D96D8011E9601900D928A953A
:101B9000E1F78A8D9B8DF801948F838F6B960FB63A
:101BA000F894DEBF0FBECDBFDF91CF911F910F9193
:101BB000FF90EF900895CF92DF92EF92FF920F93F4
:101BC0001F93CF93DF93CDB7DEB76D970FB6F89421
:101BD000DEBF0FBECDBF8C016B017C0182E0E80E41
:101BE000F11CC7014C8F5D8F0E94751E4C8D5D8D61
:101BF00081112AC023E162E077E0CE0101960E94C4
:101C00009B1F8B819C81F801958384838D819E81AC
:101C1000AF81B88586839783A087B18749855A8528
:101C20006B857C8542875387648775878DE0FE01CD
:101C30003D96D8011E9601900D928A95E1F78A8D06
:101C40009B8DF801948F838FC7010E94751E882396
:101C500039F0B601C7010E941A07C7010E94631E2E
:101C600062E070E080E090E00E940F096D960FB690
:101C7000F894DEBF0FBECDBFDF91CF911F910F91C2
:101C8000FF90EF90DF90CF9008959FB7F894209148
:101C9000F4048091F204213019F48DBB9FBF0895A4
:101CA0008FBF08952091F404222399F03FB7F89450
:101CB0002091F404213059F42DB32093F2044DB354
:101CC0002091F304209524232DBB3FBF02C0309305
:101CD000F2048CBD9DBD08958EBD00000DB407FEBD
:101CE000FDCF8EB508958FEF0C946C0E61E0FC0172
:101CF00084810E94D4098091F604882339F01092DF
:101D0000F6048091F40481110C94450E0895CF934C
:101D1000DF93EC018091F604811109C081E080938A
:101D2000F6048091F7049091F8040E94520E60E04E
:101D30008C81DF91CF910C94D409CF93DF93EC0188
:101D40008E81882389F08F8198859C012F5F3F4F7A
:101D500038872F838230924018F40E94730EF3CF9D
:101D6000CE010E94760E1E82DF91CF9108956730DA
:101D700028F026E1FC01258380E00895623081F09F
:101D800030F4662359F06130B1F480E515C0643059
:101D900059F040F0653079F482E50EC080E505C069
:101DA00081E503C081E508C082E58093F70481E006
:101DB0008093F804089583E58093F7041092F80463
:101DC00081E008950F931F93CF93DF93EB010E945F
:101DD000E0088B010E94730E8F3F49F00E94E008DB
:101DE000601B710B6C177D07A8F380E001C081E0D8
:101DF000DF91CF911F910F910895CF92DF92FF92C3
:101E00000F931F93CF93DF9300D000D0CDB7DEB7F1
:101E10006C01F62E29833A834B835C830E949D0ECE
:101E2000C6010E94870E6CE271E0C6010E94E20EBC
:101E30008F2D80640E946C0E08E110E05C814B8164
:101E40003A812981DA01C901002E04C0B695A7950F
:101E5000979587950A94D2F729833A834B835C83BD
:101E60000E946C0E0850110929813A814B815C81D6
:101E7000083F8FEF180731F7FF2029F0E8E0FE1642
:101E800021F08FEF03C085E901C087E80E946C0E46
:101E900010E00E94730EF601828787FF04C01F3F87
:101EA00011F01F5FF6CF0F900F900F900F90DF9102
:101EB000CF911F910F91FF90DF90CF900895BF9227
:101EC000CF92DF92EF92FF920F931F93CF93DF9306
:101ED000EC01B62E1B8619861E821D824C830E9441
:101EE000E0088B0161E08C810E949B0961E08C819C
:101EF0000E94D4090E94480D82E58093F704109255
:101F0000F8048091F7049091F8040E94520E2AE0A0
:101F1000F22E8FEF0E946C0EFA94D9F78091F404A0
:101F200081110E94450ECE010E94870E20E030E014
:101F3000A90160E0CE010E94FD0EF82E8A8781E0A3
:101F4000F81649F00E94E008601B710B613D774074
:101F500068F381E04BC02AEA31E040E050E068E0FD
:101F6000CE010E94FD0E82FF02C0FB860DC094E0F0
:101F7000F92E0E94730E8A87FA94D9F78A3A11F0E3
:101F800082E034C082E08B878B85823031F4C12CB3
:101F9000D12CE12C80E4F82E03C0C12CD12C760189
:101FA00020E030E0A90167E3CE010E94FD0EA70109
:101FB000960169E2CE010E94FD0E8A87882349F0CE
:101FC0000E94E008601B710B613D774048F388E098
:101FD0000DC08B85823031F520E030E0A9016AE345
:101FE000CE010E94FD0E882381F086E08D83CE0114
:101FF0000E94760E80E0DF91CF911F910F91FF90AC
:10200000EF90DF90CF90BF9008950E94730E807C78
:10201000803C11F483E08B870E94730E0E94730E44
:102020000E94730ECE010E94760E6B2DCE01DF91C1
:10203000CF911F910F91FF90EF90DF90CF90BF90C5
:102040000C94B70E0F931F93CF93DF93EC010E9474
:10205000E0088B010E94730E8A878F3F49F40E942B
:10206000E008601B710B6D327140A0F38FE003C07C
:102070008E3F39F08DE08D83CE010E94760E80E098
:1020800001C081E0DF91CF911F910F910895CF9210
:10209000DF92EF92FF920F931F93CF93DF93EC01A8
:1020A00069010115110509F462C0C801820F931F6F
:1020B0008130924008F05DC08E81882371F0888164
:1020C0009981AA81BB81481759076A077B0729F4C0
:1020D0008F819885C816D90610F5488359836A837D
:1020E0007B838B85833039F039E0440F551F661FA1
:1020F000771F3A95D1F79A01AB0161E1CE010E94B9
:10210000FD0E882319F083E08D8333C0CE010E9439
:102110002210882371F118861F8281E08E838F81BF
:1021200098858C159D0540F40E94730E8F819885CB
:10213000019698878F83F3CF6701E00EF11ECE14CE
:10214000DF0431F00E94730EF60181936F01F7CF27
:102150008F819885800F911F98878F8329852223EF
:1021600019F08115924018F0CE010E949D0E81E079
:1021700004C0CE010E94760E80E0DF91CF911F91C6
:102180000F91FF90EF90DF90CF900895EF92FF9224
:102190000F931F93790100E012E020E030E00E94ED
:1021A00047101F910F91FF90EF900895CF92DF920B
:1021B000EF92FF920F931F93CF93DF9300D0CDB791
:1021C000DEB78C01862F49835A830E946C0E4981A9
:1021D000C42E5A81D52EE12CF12CF60181916F018C
:1021E0000E946C0EFFEFEF1AFF0AE11482E0F8067E
:1021F000A1F78FEF0E946C0E8FEF0E946C0E0E9471
:10220000730EF80182878F71853039F081E1858303
:10221000C8010E94760E80E001C081E00F900F900F
:10222000DF91CF911F910F91FF90EF90DF90CF90B2
:1022300008950F931F93CF93DF93EC01890141150C
:1022400051056105710511F482E132C08B8583303F
:1022500039F089E0440F551F661F771F8A95D1F723
:102260009A01AB0168E1CE010E94FD0E882311F0B6
:1022700084E01EC0A8016EEFCE010E94D610882314
:10228000C1F068E572E0CE010E94E20E811102C049
:1022900085E10EC020E030E0A9016DE0CE010E9492
:1022A000FD0E811104C00E94730E882339F084E171
:1022B0008D83CE010E94760E80E004C0CE010E9484
:1022C000760E81E0DF91CF911F910F91089580E507
:1022D0008093F7041092F8040895CF93DF93EC01F4
:1022E0009C012A5F3F4F41E050E060E070E08B8D41
:1022F0009C8D0E94C41A8823A1F04F89588D698D46
:102300007A8D452B462B472B71F44E815F81688572
:1023100079854F8B588F698F7A8F8C8180688C83F9
:1023200002C080E001C081E0DF91CF910895CF929B
:10233000DF92EF92FF921F93CF93DF93EC010E9405
:102340006D11811102C080E04BC0EB8DFC8DCE8001
:10235000DF80E884F98482E0C81AD108E108F10836
:10236000058404C0CC0CDD1CEE1CFF1C0A94D2F7C3
:102370004685578560897189C40ED51EE61EF71EF5
:10238000148181E0C81AD108E108F108112361F035
:10239000C701B601610F711D811D911D0E940E19AB
:1023A000882389F21150F2CFEB8DFC8DC12C82E095
:1023B000D82EE12CF12C058404C0CC0CDD1CEE1CC5
:1023C000FF1C0A94D2F74B895C896D897E894C0D7C
:1023D0005D1D6E1D7F1D4B8B5C8B6D8B7E8B81E03D
:1023E000DF91CF911F91FF90EF90DF90CF900895F4
:1023F000CF93DF93EC01462F6E857F85888999897D
:102400000E94D318882341F08A8920E2829FC0016C
:1024100011248E5F9A4F02C080E090E0DF91CF914F
:102420000895282FFB018BE030E231938150E9F7CA
:10243000A22FB92F20E037E09D91992319F19E3208
:1024400019F0E9EBF0E008C03A3011F128E03AE089
:10245000F3CF31964917E1F044914111FACF321789
:10246000B8F04FED490F4E3598F441E0420FFB01B3
:10247000E20FF11D2FE9290F2A3108F490529083C1
:10248000242FDACF81E0FB019081903209F480E0C3
:1024900008950F931F93CF93DF93EC018B018D81F0
:1024A000882311F080E040C0FB0187898031B1F4BE
:1024B00082E08D831F8A188E198E1A8E408D518D61
:1024C00060E070E095E0440F551F661F771F9A95F6
:1024D000D1F74B8B5C8B6D8B7E8B15C0803211F7E7
:1024E00083E08D83FB01428D538D648D758D4F8B01
:1024F000588F698F7A8F9E012D5E3F4FC8010E94D1
:10250000B819882379F21C8F0B8F81E08C831E828F
:102510001F82188619861A861B861C861D861E86B3
:102520001F86188A198A1A8ADF91CF911F910F91FD
:1025300008952F923F924F925F926F927F928F9267
:102540009F92AF92BF92CF92DF92EF92FF920F9342
:102550001F93CF93DF93EC016B015A018D818111A1
:1025600003C08FEF9FEFDAC08C8180FFFACF4B89D9
:102570005C896D897E898A859B85AC85BD852501B1
:10258000612C712C8A019B01081B190B2A0B3B0B38
:10259000041515052605370518F45A01A81AB90AB5
:1025A00025011E0126E0220E311C4114510409F4BC
:1025B0007BC04A855B856C857D854A0181E09822D8
:1025C000ED818A019B01F9E03695279517950795CE
:1025D000FA95D1F78B8D9C8DE23051F4FC01628D20
:1025E000738D848D958D600F711F821F931F3EC068
:1025F000FC0174807A94702281149104C9F47110E2
:1026000017C0452B462B472B49F48F89988DA98DF0
:10261000BA8D8E839F83A887B9870AC04E815F8158
:102620006885798591010E943419882309F499CF2E
:10263000EB8DFC8D6E817F81888599856250710953
:1026400081099109058404C0660F771F881F991FAF
:102650000A94D2F70685178520893189600F711F8A
:10266000821F931F670D711D811D911D20E032E0B7
:102670002819390932012415350508F439012C814E
:1026800026FD04C06114F2E07F06A1F500910F0160
:102690001091100120911101309112016017710702
:1026A0008207930719F426C0C50138C0760183015B
:1026B0009401AB01BC0180910005909101050E943D
:1026C0004710882309F44DCFC60CD71C04C0E81B63
:1026D000F90BCE0EDF1E8A859B85AC85BD85860DE8
:1026E000971DA11DB11D8A879B87AC87BD874618A2
:1026F00057085BCF40E00E94D318882309F431CFFC
:10270000C4018E5F9A4FD6019C01260D371DFC0136
:10271000E217F307E1F241914D93FACFDF91CF91A8
:102720001F910F91FF90EF90DF90CF90BF90AF90EF
:102730009F908F907F906F905F904F903F902F90E1
:102740000895FF920F931F93CF93DF931F92CDB7FE
:10275000DEB78C01FC018581823018F480E090E0C6
:1027600034C0F8014285538564857585A5E076956A
:10277000679557954795AA95D1F7F42FFF70FF2ECF
:1027800041E050E0BE016F5F7F4FC8010E94991287
:10279000019719F4298130E002C02FEF3FEF2F3F5E
:1027A0003F4FE1F2F8014285538564857585415EAE
:1027B0005F4F6F4F7F4F4287538764877587F0E283
:1027C000FF9EC00111248E5F9A4F0F90DF91CF9131
:1027D0001F910F91FF9008954F925F926F927F9299
:1027E000AF92BF92CF92DF92EF92FF920F931F931F
:1027F000CF93DF93EC016A017B012D81222309F441
:1028000057C08B899C89AD89BE8984179507A60717
:10281000B70708F44DC04EC08A859B85AC85BD8541
:10282000EB8DFC8DE585F0E03996AC01BD014150A2
:102830005109610971090E2E04C076956795579567
:1028400047950A94D2F79701860101501109210991
:10285000310904C03695279517950795EA95D2F763
:102860000417150726073707B0F58F89988DA98DAE
:10287000BA8D8E839F83A887B987280139015E01AD
:1028800086E0A80EB11C411451046104710461F189
:102890004E815F816885798595018B8D9C8D0E9425
:1028A000341991E0491A5108610871088111EBCF80
:1028B00080E01FC02230C1F0C114D104E104F10452
:1028C00009F0AACF1E821F82188619861A861B86D7
:1028D0001C861D860DC0892B8A2B8B2B31F2041B85
:1028E000150B260B370BC9CFCA86DB86EC86FD8617
:1028F00081E0DF91CF911F910F91FF90EF90DF90DA
:10290000CF90BF90AF907F906F905F904F90089561
:102910000F931F93CF93DF93EC018D818823C9F12F
:102920008C8187FF30C061E0CE010E94F8118C01DC
:10293000009779F18D81823048F44B895C896D89EB
:102940007E89F801448F558F668F778F4F89588D18
:10295000698D7A8DF801538F428F758B648BE0916E
:10296000F904F091FA04309759F0B8016A5E7F4F8C
:10297000C80148960995F801808D918D938B828BC3
:102980008C818F778C83DF91CF911F910F910C9465
:10299000981880E0DF91CF911F910F910895CF9308
:1029A000DF93EC010E948814882319F01D8281E0D6
:1029B00001C080E0DF91CF9108954F925F926F92B6
:1029C0007F92AF92BF92CF92DF92EF92FF920F93DE
:1029D0001F93CF93DF9300D000D0CDB7DEB75C015B
:1029E0006A017B01FC0185818130F1F4848181FFE2
:1029F0001BC0F50183899489A589B6898417950739
:102A0000A607B70788F0892B8A2B8B2B09F479C08E
:102A1000F5014284538464847584B701A601C5011D
:102A20000E94EC13811102C080E06CC0F501838D1F
:102A3000948DC114D104E104F10471F44789508DDF
:102A4000618D728D0E94D91B882371F3F501178A5D
:102A5000108E118E128E3AC0F50146815781608525
:102A600071859E012F5F3F4F0E9434198823E1F248
:102A700049815A816B817C81F501838D948DFC01A4
:102A80002789203129F408EF1FEF20E030E004C04F
:102A900008EF1FEF2FEF3FE0401751076207730762
:102AA000A8F40E94D91B882309F4BECFF501468102
:102AB0005781608571850FEF1FEF2FEF3FE0838D0A
:102AC000948D0E94231A882309F4AECFF501C38A9E
:102AD000D48AE58AF68A848180688483C5010E944D
:102AE0008814882309F4A0CFB701A6014C145D0413
:102AF0006E047F0410F4B301A201C5010E94EC131F
:102B000001C081E00F900F900F900F90DF91CF9157
:102B10001F910F91FF90EF90DF90CF90BF90AF90FB
:102B20007F906F905F904F900895FF920F931F9347
:102B3000CF93DF93EC01F42E80E2689FF001112423
:102B4000EE5FFA4F8385817129F0842F827411F032
:102B500080E053C06A8B80910F0190911001A09189
:102B60001101B09112018E879F87A88BB98B448980
:102B7000558960E070E0BA0155274427028D138D16
:102B800020E030E0402B512B622B732B4F8B588F62
:102B9000698F7A8F8385887151F4048D158D268D08
:102BA000378D0B8B1C8B2D8B3E8B81E00CC08031C5
:102BB00079F69E012D5E3F4F8B8D9C8D0E94B8193A
:102BC000882331F284E08D838F2D8F708C831E8259
:102BD0001F82188619861A861B861C861D86F6FE9D
:102BE0000BC040E050E0BA01CE01DF91CF911F91C0
:102BF0000F91FF900C94DD1481E0DF91CF911F9134
:102C00000F91FF900895AF92BF92CF92DF92EF9213
:102C1000FF920F931F93CF93DF93CDB7DEB72B9720
:102C20000FB6F894DEBF0FBECDBF7C016B01CA01A9
:102C3000B22EF70125812111B9C0BE016F5F7F4F10
:102C40000E941112882309F4B1C0F601838D948D7E
:102C5000F701948F838FF6011682178210861186F2
:102C60001286138614861586A12CF601028513851B
:102C70002485358583899489A589B689081719071C
:102C80002A073B07E8F545E0369527951795079500
:102C90004A95D1F70F70C6010E94A113009709F45D
:102CA00085C0FC012081222311F0253EB9F4A1103A
:102CB0000EC0F701028B40910F01509110016091FD
:102CC00011017091120146875787608B718BFC014F
:102CD0008081AA24A3948111C8CF12C04BE050E098
:102CE000BC01CE0101960E944823892B09F0BDCF7B
:102CF0008B2D8073803309F459C04B2D602F52C047
:102D00008B2D8271823109F051C0AA2041F061E01F
:102D1000C7010E94F8118C01009779F447C0F601B1
:102D20008581823009F442C0C6010E949711882330
:102D3000E9F1F701128A02E015E080E2F801119250
:102D40008A95E9F78BE0FE013196D80101900D924A
:102D50008A95E1F7E091F904F091FA04309739F09F
:102D6000B801625F7F4FC8014096099509C081E2B2
:102D700098E2F801918B808B80E098E097878687B6
:102D8000F80180899189938B828B918F808F8685C2
:102D90009785978B868B0E949818882339F04B2D46
:102DA000F7016289C7010E94951501C080E02B964A
:102DB0000FB6F894DEBF0FBECDBFDF91CF911F914C
:102DC0000F91FF90EF90DF90CF90BF90AF9008955C
:102DD0002F923F924F925F926F927F928F929F922B
:102DE000AF92BF92CF92DF92EF92FF920F931F9319
:102DF000CF93DF9300D000D01F92CDB7DEB78C0108
:102E00007B013A01DC0115968C9115978130C9F44C
:102E100014968C9181FF15C082FF1BC0F801438975
:102E200054896589768982859385A485B5858417BB
:102E30009507A607B70769F0C8010E94EC13811136
:102E400008C081E090E0F8019383828380E090E005
:102E500046C1630180C0D8015B968D919C915C97BF
:102E6000FC01F481F150B501A40129E07695679544
:102E7000579547952A95D1F7F423FD8321E09222B7
:102E8000FF2309F474C080E092E088199909560183
:102E90008C159D0508F45C01D8015B96ED91FC91C1
:102EA0005C9716962D903D904D905C901997B2E0EE
:102EB0002B1A310841085108058404C0220C331C28
:102EC000441C551C0A94D2F786859785A089B18940
:102ED000280E391E4A1E5B1EED812E0E311C411C30
:102EE000511CA114F2E0BF0609F088C080910F01C7
:102EF00090911001A0911101B091120182159305DA
:102F0000A405B50559F48FEF9FEFDC0180930F0105
:102F100090931001A0931101B09312019701B20197
:102F2000A10180910005909101050E94191188234B
:102F300009F487CF9EEFF91ACA18DB08F8018285D9
:102F40009385A485B5858A0D9B1DA11DB11D828722
:102F50009387A487B587D8011A968D909D90AD90E0
:102F6000BC901D97C114D10409F075CF8AC081149B
:102F7000910409F088CF16964D915D916D917C91E9
:102F80001997411551056105710559F457968D91B1
:102F90009D910D90BC91A02D0097A105B10541F523
:102FA00021C09E012F5F3F4F0E943419882309F4EE
:102FB0004ECF89819A81AB81BC81F801238D348DFC
:102FC000F9012789203129F448EF5FEF60E070E0D4
:102FD00004C048EF5FEF6FEF7FE084179507A60707
:102FE000B70730F0C8010E946D1181114CCF29CF75
:102FF000F80186839783A087B18745CF8114910418
:1030000029F5D8011A964D915D916D917C911D978E
:1030100053968D919D910D90BC91A02D4817590705
:103020006A077B0798F00E949818882309F409CF53
:1030300020920F0130921001409211015092120122
:103040008091FF0481608093FF0408C041E0C201C9
:10305000B1010E94D318882309F4F3CEC4018E5F16
:103060009A4FD7019C012A0D3B1DFC01E217F30783
:1030700019F04D914193FACFE81BF90BEE0EFF1EAC
:103080005BCF53968D919D910D90BC91A02DF80131
:10309000248188159905AA05BB0538F4838A948A8A
:1030A000A58AB68A206824830CC08091F904909187
:1030B000FA04892B31F06114710419F02068F801C9
:1030C0002483D80114968C9183FD02C0C30107C0EC
:1030D000C8010E948814882309F4B3CEF7CF0F905B
:1030E0000F900F900F900F90DF91CF911F910F9144
:1030F000FF90EF90DF90CF90BF90AF909F908F9018
:103100007F906F905F904F903F902F900895CF9356
:10311000DF931F92CDB7DEB7698341E050E0BE0177
:103120006F5F7F4F0E94E8160F90DF91CF91089557
:103130008091FF04882399F140910F015091100173
:10314000609111017091120122E035E0809100053B
:10315000909101050E941911882319F14091FB04F7
:103160005091FC046091FD047091FE0441155105DD
:103170006105710591F022E035E0809100059091A4
:1031800001050E941911882361F01092FB0410922E
:10319000FC041092FD041092FE041092FF0481E0E2
:1031A000089580E00895CF92DF92EF92FF92CF933F
:1031B0006B017C01C42F80910F0190911001A091AF
:1031C0001101B09112018C159D05AE05BF05D1F01E
:1031D0000E949818811102C080E01AC022E035E0F8
:1031E000B701A60180910005909101050E94C610CB
:1031F000882391F3C0920F01D0921001E092110147
:10320000F09212018091FF048C2B8093FF0481E0E7
:10321000CF91FF90EF90DF90CF900895CF92DF9203
:10322000EF92FF926B017C010E9498188823B1F005
:10323000E2E0F5E0119287E0E230F807D9F7C092BA
:103240000F01D0921001E0921101F09212018091D1
:10325000FF0481608093FF0481E001C080E0FF9063
:10326000EF90DF90CF9008958F929F92AF92BF9290
:10327000CF92DF92EF92FF920F931F93CF93DF9342
:103280008C016A017B01E901FC0181859285A3859E
:10329000B4850196A11DB11D84179507A607B70730
:1032A00010F480E058C0F801438954896589768913
:1032B0008789803129F4BB27AF2D9E2D8D2D09C024
:1032C000D701C60127E0B695A795979587952A95CA
:1032D000D1F74C015D01840E951EA61EB71EC501D7
:1032E000B40180900F0190901001A0901101B09056
:1032F0001201681579058A059B0589F4F80187890B
:10330000803199F4DD24EE24FF24F601EE0FFF1F37
:10331000EE5FFA4F80819181A0E0B0E017C040E0FD
:103320000E94D3188111EACFBCCFE894C7F8DD24FE
:10333000EE24FF24F601EE0FFF1FEE0FFF1FEE5FDE
:10334000FA4F80819181A281B381BF708883998374
:10335000AA83BB8381E0DF91CF911F910F91FF90F2
:10336000EF90DF90CF90BF90AF909F908F90089597
:103370004F925F926F927F92AF92BF92CF92DF9205
:10338000EF92FF920F931F93CF93DF9300D000D063
:10339000CDB7DEB78C0149835A836B837C83590197
:1033A000C12CD12C7601412C42E0542E612C712C81
:1033B00049815A816B817C819E012F5F3F4FC801FB
:1033C0000E943419882359F1D301C201F801058400
:1033D00004C0880F991FAA1FBB1F0A94D2F7C80EFA
:1033E000D91EEA1EFB1E49815A816B817C81878927
:1033F000803129F488EF9FEFA0E0B0E004C088EFAF
:103400009FEFAFEFBFE0481759076A077B0780F2CD
:10341000F501C082D182E282F38281E001C080E0C6
:103420000F900F900F900F90DF91CF911F910F9100
:10343000FF90EF90DF90CF90BF90AF907F906F9014
:103440005F904F9008954F925F926F927F928F920C
:103450009F92AF92BF92CF92DF92EF92FF920F9323
:103460001F93CF93DF93EC016A017B01280139019F
:10347000423051056105710508F474C049855A85CB
:103480006B857C854F5F5F4F6F4F7F4F4C155D05A0
:103490006E057F0508F466C08B889C88AD88BE8861
:1034A0008F89803129F477276F2D5E2D4D2D09C02E
:1034B000B701A601E7E07695679557954795EA9598
:1034C000D1F7840E951EA61EB71E40910F01509194
:1034D0001001609111017091120184169506A606E3
:1034E000B70671F48F89803199F4DD24EE24FF242E
:1034F000F601EE0FFF1FEE5FFA4F5182408218C0B7
:1035000040E0C501B4010E94D3188111EBCF2AC05D
:10351000E894C7F8DD24EE24FF24F601EE0FFF1F28
:10352000EE0FFF1FEE5FFA4F40825182628273827C
:103530008091FF0481608093FF048A89823080F04B
:103540008D819E81AF81B885880D991DAA1DBB1DF7
:103550008093FB049093FC04A093FD04B093FE04BD
:1035600081E001C080E0DF91CF911F910F91FF902A
:10357000EF90DF90CF90BF90AF909F908F907F9013
:103580006F905F904F9008952F923F924F925F926D
:103590006F927F929F92AF92BF92CF92DF92EF9203
:1035A000FF920F931F93CF93DF93CDB7DEB7609752
:1035B0000FB6F894DEBF0FBECDBF5C014D875E87AE
:1035C0006F87788B1901D9014D905D906D907C903B
:1035D000411451046104710431F0BFEF4B1A5B0ACE
:1035E0006B0A7B0A10C0FC014080518062807380AE
:1035F000992493940D851E852F85388901301105F6
:103600002105310509F0912CD50119962D913D9197
:103610004D915C911C972F5F3F4F4F4F5F4F298714
:103620003A874B875C87730162011D821E821F826D
:103630001886F50181859285A385B4850D811E814B
:103640002F813885081719072A073B0708F056C04D
:1036500029853A854B855C852C153D054E055F0512
:1036600050F4A2E0CA2ED12CE12CF12CB2E04B2E6A
:10367000512C612C712C9E012F5F3F4FB701A60189
:10368000C5010E9434198823C9F149815A816B818F
:103690007C81D701C6010196A11DB11D452B462B8A
:1036A000472B19F02C013D010FC0AC01BD0144199D
:1036B0005509660977090D851E852F8538894017BC
:1036C00051076207730779F02D813E814F8158853C
:1036D0002F5F3F4F4F4F5F4F2D833E834F83588760
:1036E0006C017D01A6CF0FEF1FEF2FEF3FE0B70179
:1036F000A601C5010E94231A811118C080E041C0B3
:10370000D701C6010197A109B1098D839E83AF83BB
:10371000B88797018601AC01BD01C5010E94231A3B
:10372000882361F3CD80DE80EF80F8844C145D0443
:103730006E047F0428F3D1014D915D916D917C91D0
:10374000411551056105710599F4F10140825182DD
:10375000628273829920A1F0FFEF4F1A5F0A6F0A0D
:103760007F0AD5014D925D926D927C92139708C0AD
:1037700093018201C5010E94231A8111E6CFBECFB9
:1037800081E060960FB6F894DEBF0FBECDBFDF912B
:10379000CF911F910F91FF90EF90DF90CF90BF904E
:1037A000AF909F907F906F905F904F903F902F9041
:1037B0000895AF92BF92CF92DF92EF92FF920F9354
:1037C0001F93CF93DF9300D000D0CDB7DEB75C015D
:1037D0006A017B0182E090E0A0E0B0E0F501808327
:1037E0009183A283B3839E012F5F3F4FB701A60150
:1037F000C5010E943419882311F100E010E09801FE
:10380000B701A601C5010E94231A8823C1F0C9800F
:10381000DA80EB80FC80F5018789803129F488EF1C
:103820009FEFA0E0B0E004C088EF9FEFAFEFBFE0F4
:10383000C816D906EA06FB06B0F281E001C080E0B6
:103840000F900F900F900F90DF91CF911F910F91DC
:10385000FF90EF90DF90CF90BF90AF9008958F9240
:103860009F92AF92BF92CF92DF92EF92FF920F930F
:103870001F93CF93DF93EC01142F70930105609396
:103880000005442341F1453010F080E0EFC040E0F6
:1038900060E070E0CB010E94D3188823B1F320E1EF
:1038A000129FF0011124E055F94F80818F7769F75D
:1038B00084859585A685B78584369105A105B105D2
:1038C00020F3C084D184E284F384C114D104E104E0
:1038D000F10421F4DACFC12CD12C760140E0C701EC
:1038E000B6010E94D318882381F280910D05909132
:1038F0000E058115924049F630911205332329F2C5
:103900008091100590911105892B09F4BECF20916B
:103910000F05222309F4B9CF3A8B2C831D8630E0A2
:1039200041E050E06D85062FCA01062E02C0880FC7
:10393000991F0A94E2F72817390731F081E0860FC2
:103940008D87683078F3A1CF209118053091190543
:103950002115310519F040E050E008C020912605FE
:103960003091270540912805509129052D833E83EC
:103970004F8358878091100590911105460157019A
:10398000880E991EA11CB11C8B8A9C8AAD8ABE8AA6
:10399000E0911305F0911405F98FE88FA0911205BD
:1039A000B0E00E941622680D791D8A1D9B1D6A8F4A
:1039B0007B8F8C8F9D8F15E0EE0FFF1F1A95E1F71F
:1039C000E150FE4FEF2FFF27E695DC01CB018E0F74
:1039D0009F1FA11DB11D8E879F87A88BB98B8090DB
:1039E0001505909016058114910419F0A12CB12CA5
:1039F00008C08090220590902305A0902405B090E7
:103A00002505A7019601281B390B4A0B5B0BDA0130
:103A1000C901880D991DAA1DBB1D04C0B695A795A7
:103A2000979587950A95D2F789879A87AB87BC8740
:103A3000853F3FE09307A105B10510F48CE014C069
:103A4000853F9F4FA105B10510F480E10DC0809125
:103A50002E0590912F05A0913005B09131058A8FE8
:103A60009B8FAC8FBD8F80E28F8B81E0DF91CF91F8
:103A70001F910F91FF90EF90DF90CF90BF90AF908C
:103A80009F908F900895CF93DF931F92CDB7DEB7AD
:103A90006983DC01ED91FC910280F381E02D41E02E
:103AA00050E0BE016F5F7F4F09950F90DF91CF917E
:103AB0000895CF93DF93EC01898D9A8D009759F08B
:103AC000FC01138212820E94E816E98DFA8D228190
:103AD0003381232B31F081E090E09B838A8380E067
:103AE00090E0DF91CF910895FC01818D928D009738
:103AF00011F00C9488140895CF93DF931F92CDB7E3
:103B0000DEB741E050E0BE016F5F7F4F0E94991227
:103B1000019719F4898190E002C08FEF9FEF0F9019
:103B2000DF91CF910895FC01818D928D009711F066
:103B30000C947C1D8FEF9FEF08950F931F93CF93ED
:103B4000DF938C01FC01818D928D0097B9F00E946A
:103B50007C1DEC018F3FFFEF9F0799F0F801818DED
:103B6000928DFC01428553856485758541505109CC
:103B7000610971090E94EC13CE0105C080E090E05C
:103B800002C08FEF9FEFDF91CF911F910F910895AA
:103B9000CF92DF92EF92FF920F931F93CF93DF9319
:103BA000EC017B016A011B821A8208EE13E020E01F
:103BB00030E00C831D832E833F838DE692E0998352
:103BC00088838DE190E00E9421229A8F898F00974F
:103BD00079F02DE1F701DC0101900D922A95E1F7D2
:103BE0004CE050E0B601CE010C960E946023188E86
:103BF000DF91CF911F910F91FF90EF90DF90CF90C9
:103C00000895FC011382128248EE53E060E070E0F8
:103C100044835583668377838DE692E09183808326
:103C2000128E118E14860895DC015996ED91FC9147
:103C30005A97309729F06285738584859585089514
:103C40006FEF7FEFCB010895DC015996ED91FC9168
:103C50005A97309729F063897489858996890895E0
:103C600060E070E0CB010895CF92DF92EF92FF9277
:103C7000CF93DF93EC01898D9A8D892BD9F0CE01FA
:103C80000E94241E6B017C01CE010E94141EA7011C
:103C90009601261B370B480B590BDA01C901811518
:103CA00030E89307A105B10538F08FEF9FE7A0E05A
:103CB000B0E002C080E090E0DF91CF91FF90EF9004
:103CC000DF90CF900895CF93DF93EC01898D9A8D8B
:103CD000009741F00E94CF14898D9A8D0E94B922DD
:103CE0001A8E198EDF91CF910895DC015996ED91CE
:103CF000FC915A97309721F081E09581911101C094
:103D000080E008950F931F93CF93DF93EC01462F2C
:103D100061E00E945F0F811102C080E01DC08E0132
:103D2000045F1F4F41E0BE01C8010E942F1C882381
:103D300059F0B801CE018A960E94491291E0811192
:103D400001C090E0892F08C040E0BE01C8010E9478
:103D50002F1C882311F3EDCFDF91CF911F910F918D
:103D60000895FC01DB0112968D919C91139793832A
:103D7000828385E692E09183808314968C911497D8
:103D8000848315968C911597858316964D915D9138
:103D90006D917C91199746835783608771871A9636
:103DA0004D915D916D917C911D97428753876487FA
:103DB00075871E964D915D916D917C9151974687C7
:103DC0005787608B718B52968C915297828B53964A
:103DD0004D915D916D917C915697438B548B658B82
:103DE000768B57964D915D916D917C915A97478B4B
:103DF000508F618F728F5B968D919C915C97948FA1
:103E0000838F08954F925F926F927F928F929F92CD
:103E1000AF92BF92CF92DF92EF92FF920F931F93D8
:103E2000CF93DF93CDB7DEB7C754D1090FB6F8945F
:103E3000DEBF0FBECDBF6C014A013901665D7F4F09
:103E40005E018EE1A80EB11CC5010E94B11E1C824C
:103E50001B8285E692E09A8389831E828401FE019B
:103E600031967F015A2C4B2C6FE270E0C8010E9402
:103E700055230097E9F1F80120812F3219F40F5FE3
:103E80001F4FF2CF801B8D3008F08CE0A82EB12C94
:103E9000A501B801CE01CB960E946023EBE3F0E0D0
:103EA000EC0FFD1FEA0DFB1D1082C7010E94CF140D
:103EB00021E0AE01455C5F4F652D742DC7010E9466
:103EC0000316811109C0F6011382128285E692E081
:103ED00091838083158216C00A0D1B1D852D942D9C
:103EE0000E94CF14C2015E2C4F2CE92EF82EBCCFBD
:103EF00008191909F30111830083652D742DC6017A
:103F00000E94B11EC601C95BDF4F0FB6F894DEBF39
:103F10000FBECDBFDF91CF911F910F91FF90EF901A
:103F2000DF90CF90BF90AF909F908F907F906F90D9
:103F30005F904F9008959F92AF92BF92CF92DF9281
:103F4000EF92FF920F931F93CF93DF93CDB7DEB71E
:103F5000C955D1090FB6F894DEBF0FBECDBF7C01A5
:103F60006B015A01922E9E01285A3F4FCE01CB96EB
:103F70000E94021F6A960EAD1FAD6A970A0D1B1DA7
:103F8000F801808181110AC0BE01655C7F4FCE01BE
:103F900001960E94B11E49E752E041C019A218A241
:103FA00085E692E09F8F8E8F1BA221968FAD219781
:103FB000811104C0C7010E94011E37C082508230A7
:103FC00060F4B601665D7F4F292DA801CE014E96A3
:103FD0000E940316811110C0EDCF292DA801BE014A
:103FE000655C7F4FCE014E960E940316882311F325
:103FF000CE01CB960E94CF14892D867041F049A93D
:104000005AA96BA97CA9CE014E960E94EC13BE0161
:10401000625E7F4FCE0101960E94B11EA801BE01D3
:104020006F5F7F4FC7010E94C81DC701C75ADF4F8E
:104030000FB6F894DEBF0FBECDBFDF91CF911F91B9
:104040000F91FF90EF90DF90CF90BF90AF909F9037
:104050000895109207071092080710920B0710920C
:104060000D0782E090E0A0E0B0E080930E0790930F
:104070000F07A0931007B093110710922507109215
:104080002F0710922E0785E692E090932D078093DC
:104090002C07109231070895DC01ED91FC910190FD
:1040A000F081E02D0994DB01A05DB74030E0E9EC40
:1040B000F0E081E08E1B982F9E0F941728F49491C6
:1040C000290F311D3196F7CF423029F4CD0183708D
:1040D0009927892BA9F04DE651E0A49FC001A59F27
:1040E000900DB49F900D11246D5C77407695679587
:1040F00076956795860F971F0197820F931F0895F6
:104100002F5F3F4FE8CF1F93CF93DF93FC01C68112
:10411000D581148160817181238142810E94532065
:104120009C01A8E1B0E00E9407229B01AC01210F95
:10413000311D411D511DACE3B0E00E9416229B01D0
:10414000AC012D0F311D411D511D0E9416226C0F17
:10415000711D811D911D60597A4C8249974CDF91E8
:10416000CF911F9108951F93CF93DF931F92CDB7E7
:10417000DEB7162F68E670E080EA94E049830E947B
:10418000C80C612F80EA94E00E94750C4981642F6D
:1041900080EA94E00E94750C80EA94E00F90DF9131
:1041A000CF911F910C94410DAF92BF92CF92DF92AD
:1041B000EF92FF920F931F93CF93DF93CDB7DEB7AC
:1041C0002E970FB6F894DEBF0FBECDBF6C018B01EA
:1041D00068E670E080EA94E00E94C80C60E070E05D
:1041E00080EA94E00E944C2080EA94E00E94410D15
:1041F00047E050E068E670E080EA94E00E943E0DFF
:1042000080EA94E00E941D0C892BD1F37E012FE0FF
:10421000E20EF11CCE0101965C0180EA94E00E945E
:10422000250C982F92959F708F70EAE09E9F800DCD
:10423000112490E0F701929382937F01EA15FB0528
:1042400061F780EA94E00E94410D89819A81805350
:10425000984FF801918380838B8182838D81838342
:104260008F818783898584838B8585838D858683EC
:10427000C8010E948320F801608771878287938735
:104280008CE0D60101900D928A95E1F7C6012E9639
:104290000FB6F894DEBF0FBECDBFDF91CF911F9157
:1042A0000F91FF90EF90DF90CF90BF90AF90089567
:1042B000CF93C62F68E670E080EA94E00E94C80CB5
:1042C0006C2F80EA94E00E94750C80EA94E00E94D2
:1042D000410D41E050E068E670E080EA94E00E9421
:1042E0003E0D80EA94E00E941D0C892BD1F380EAF8
:1042F00094E00E94250CC82F80EA94E00E94410DB2
:104300008C2FCF910895EF92FF921F93CF93DF935D
:104310001F92CDB7DEB77C01162F6EE049830E9455
:1043200058214981442311F0806401C08F7B482FBC
:10433000112311F04B7701C040686EE0C7010F9068
:10434000DF91CF911F91FF90EF900C94B320CF930A
:10435000DF93EC0180EA94E00E94B40C40E061E05D
:10436000CE010E94832180ED97E09983888381E0CC
:104370008A838B831C821D821E8286E08F8340E7A6
:1043800055E36DE678E3488759876A877B8781E044
:10439000DF91CF910895AA1BBB1B51E107C0AA1F53
:1043A000BB1FA617B70710F0A61BB70B881F991FD6
:1043B0005A95A9F780959095BC01CD010895A1E289
:1043C0001A2EAA1BBB1BFD010DC0AA1FBB1FEE1F8F
:1043D000FF1FA217B307E407F50720F0A21BB30BDA
:1043E000E40BF50B661F771F881F991F1A9469F756
:1043F00060957095809590959B01AC01BD01CF01B2
:104400000895EE0FFF1F0590F491E02D0994A29FEF
:10441000B001B39FC001A39F700D811D1124911D98
:10442000B29F700D811D1124911D08950E940722D5
:10443000A59F900DB49F900DA49F800D911D1124F8
:104440000895CF93DF938230910510F482E090E0DD
:10445000E0914D07F0914E0720E030E0A0E0B0E0A1
:10446000309739F14081518148175907B8F0481702
:10447000590771F482819381109729F013969C93C8
:104480008E9312972CC090934E0780934D0727C0B0
:104490002115310531F04217530718F0A901DB014E
:1044A00001C0EF019A01BD01DF010280F381E02D1F
:1044B000D7CF21153105F9F0281B390B24303105F0
:1044C00080F48A819B816115710521F0FB01938342
:1044D000828304C090934E0780934D07FE0132966D
:1044E00044C0FE01E20FF31F8193919322503109E2
:1044F000398328833AC020914B0730914C07232BF6
:1045000041F4209102013091030130934C07209334
:104510004B0720910001309101012115310541F433
:104520002DB73EB74091040150910501241B350B76
:10453000E0914B07F0914C07E217F307A0F42E1B14
:104540003F0B2817390778F0AC014E5F5F4F2417F7
:10455000350748F04E0F5F1F50934C0740934B07B1
:104560008193919302C0E0E0F0E0CF01DF91CF9121
:104570000895CF93DF93009709F487C0FC01329729
:1045800013821282C0914D07D0914E07209781F47B
:1045900020813181280F391F80914B0790914C0762
:1045A0008217930779F5F0934C07E0934B076DC0A2
:1045B000DE0120E030E0AE17BF0750F412964D91B7
:1045C0005C9113979D014115510509F1DA01F3CF73
:1045D000B383A28340815181840F951F8A179B0763
:1045E00071F48D919C911197840F951F0296918380
:1045F000808312968D919C911397938382832115CA
:10460000310529F4F0934E07E0934D073EC0D901E0
:104610001396FC93EE9312974D915D91A40FB51FE5
:10462000EA17FB0779F480819181840F951F029628
:10463000D90111969C938E938281938113969C93BA
:104640008E931297E0E0F0E08A819B81009719F049
:10465000FE01EC01F9CFCE01029628813981820F4B
:10466000931F20914B0730914C072817390769F4A5
:10467000309729F410924E0710924D0702C0138212
:104680001282D0934C07C0934B07DF91CF910895CE
:10469000FB01DC0104C08D910190801921F441508F
:1046A0005040C8F7881B990B0895FC01819186172B
:1046B00021F08823D9F7992708953197CF010895DC
:1046C000FB01DC014150504048F001900D92002068
:1046D000C9F701C01D9241505040E0F70895AEE087
:1046E000B0E0E5E7F3E20C9417260D891E8986E019
:1046F0008C831A8309838FEF9FE79E838D83AE019E
:10470000475E5F4F6F89788DCE0101960E9491239D
:10471000EF81F885E00FF11F10822E96E4E00C94F3
:104720003326ACE0B0E0E7E9F3E20C9409267C0123
:104730006B018A01FC0117821682838181FFBDC152
:10474000CE0101964C01F7019381F60193FD85910D
:1047500093FF81916F01882309F4ABC1853239F44D
:1047600093FD859193FF81916F01853229F4B70103
:1047700090E00E947925E7CF512C312C20E02032A7
:10478000A0F48B3269F030F4803259F0833269F44E
:1047900020612CC08D3239F0803339F4216026C07D
:1047A0002260246023C0286021C027FD27C030ED8F
:1047B000380F3A3078F426FF06C0FAE05F9E300DDD
:1047C0001124532E13C08AE0389E300D1124332E4D
:1047D00020620CC08E3221F426FD6BC1206406C01D
:1047E0008C3611F4206802C0883641F4F60193FD3E
:1047F000859193FF81916F018111C1CF982F9F7D8A
:104800009554933028F40C5F1F4FFFE3F9830DC0DC
:10481000833631F0833771F0833509F05BC022C0F5
:10482000F801808189830E5F1F4F44244394512CEB
:10483000540115C03801F2E06F0E711CF801A08020
:10484000B18026FF03C0652D70E002C06FEF7FEFDF
:10485000C5012C870E946E252C0183012C852F77A2
:10486000222E17C03801F2E06F0E711CF801A080F3
:10487000B18026FF03C0652D70E002C06FEF7FEFAF
:10488000C5012C870E9463252C012C852068222ECF
:10489000830123FC1BC0832D90E048165906B0F419
:1048A000B70180E290E00E9479253A94F4CFF501B7
:1048B00027FC859127FE81915F01B70190E00E945E
:1048C000792531103A94F1E04F1A510841145104FE
:1048D00071F7E5C0843611F0893639F5F80127FF04
:1048E00007C060817181828193810C5F1F4F08C076
:1048F00060817181882777FD8095982F0E5F1F4F0B
:104900002F76B22E97FF09C090958095709561958E
:104910007F4F8F4F9F4F2068B22E2AE030E0A401D6
:104920000E94AB25A82EA81844C0853729F42F7EF5
:10493000B22E2AE030E025C0F22FF97FBF2E8F364D
:10494000C1F018F4883579F0B4C0803719F0883791
:1049500021F0AFC02F2F2061B22EB4FE0DC08B2DE1
:104960008460B82E09C024FF0AC09F2F9660B92E1C
:1049700006C028E030E005C020E130E002C020E1C0
:1049800032E0F801B7FE07C06081718182819381B6
:104990000C5F1F4F06C06081718180E090E00E5F68
:1049A0001F4FA4010E94AB25A82EA818FB2DFF774E
:1049B000BF2EB6FE0BC02B2D2E7FA51450F4B4FED7
:1049C0000AC0B2FC08C02B2D2E7E05C07A2C2B2DE0
:1049D00003C07A2C01C0752C24FF0DC0FE01EA0D26
:1049E000F11D8081803311F4297E09C022FF06C0A9
:1049F0007394739404C0822F867809F0739423FD16
:104A000013C020FF06C05A2C731418F4530C571807
:104A1000732C731468F4B70180E290E02C870E9435
:104A2000792573942C85F5CF731410F4371801C0D1
:104A3000312C24FF12C0B70180E390E02C870E9444
:104A400079252C8522FF17C021FF03C088E590E05F
:104A500002C088E790E0B7010CC0822F867859F039
:104A600021FD02C080E201C08BE227FD8DE2B7018B
:104A700090E00E947925A51438F4B70180E390E016
:104A80000E9479255A94F7CFAA94F401EA0DF11DFA
:104A90008081B70190E00E947925A110F5CF3320E5
:104AA00009F451CEB70180E290E00E9479253A9452
:104AB000F6CFF7018681978102C08FEF9FEF2C968A
:104AC000E2E10C942526FC01059061507040011034
:104AD000D8F7809590958E0F9F1F0895FC01615027
:104AE000704001900110D8F7809590958E0F9F1F10
:104AF00008950F931F93CF93DF93182F092FEB0186
:104B00008B8181FD03C08FEF9FEF20C082FF10C01B
:104B10004E815F812C813D81421753077CF4E881EF
:104B2000F9819F012F5F3F4F39832883108306C08F
:104B3000E885F985812F0995892B29F72E813F81F9
:104B40002F5F3F4F3F832E83812F902FDF91CF9197
:104B50001F910F910895FA01AA27283051F12031B1
:104B600081F1E8946F936E7F6E5F7F4F8F4F9F4F01
:104B7000AF4FB1E03ED0B4E03CD0670F781F891F43
:104B80009A1FA11D680F791F8A1F911DA11D6A0F11
:104B9000711D811D911DA11D20D009F468943F91C4
:104BA0002AE0269F11243019305D3193DEF6CF01C3
:104BB0000895462F4770405D4193B3E00FD0C9F789
:104BC000F6CF462F4F70405D4A3318F0495D31FDF6
:104BD0004052419302D0A9F7EACFB4E0A695979549
:104BE000879577956795BA95C9F70097610571051F
:104BF00008959B01AC010A2E069457954795379569
:104C00002795BA95C9F7620F731F841F951FA01DC2
:104C100008952F923F924F925F926F927F928F9260
:104C20009F92AF92BF92CF92DF92EF92FF920F933B
:104C30001F93CF93DF93CDB7DEB7CA1BDB0B0FB645
:104C4000F894DEBF0FBECDBF09942A883988488802
:104C50005F846E847D848C849B84AA84B984C88498
:104C6000DF80EE80FD800C811B81AA81B981CE0F8F
:104C7000D11D0FB6F894DEBF0FBECDBFED01089574
:104C800010E0C2EED0E004C0FE010E940322229692
:0A4C9000C43ED107C9F7F894FFCF26
:104C9A0000004F07800001000000FF30083008FFC5
:104CAA00FFFFFF5374617274696E672073797374BE
:104CBA00656D0052617720646174613A20002D00AD
:104CCA003A00496E697469616C697A696E67205342
:104CDA004420636172642E2E2E00696E69746961C4
:104CEA006C697A6174696F6E206661696C656421AA
:104CFA0000696E697469616C697A6174696F6E20A2
:104D0A00646F6E652E004C6F672E7478740025648C
:104D1A002D25642D25642025643A25643A256420CE
:104D2A0000257320566F6C74733A202564204375EE
:104D3A007272656E742025642E2564204163747531
:104D4A00616C20506F7765722025642E25326420AD
:104D5A004B776820256C752E25326C750A00202544
:104D6A0073205265636569766564206672616D6554
:104D7A0020626164204352430A00257320457272FF
:104D8A006F72207768656E20726563656976696EF1
:104D9A006720646174612066726F6D206D6F64753F
:104DAA006C650A0000000000EB02F102000000003E
:104DBA003F034503000000001A05CF069C04B50412
:104DCA00A704F8040000000086060D0A006E616E52
:104DDA0000696E66006F76660000000000750C4878
:104DEA000C1D0C250C380C470C000000007E0D84AD
:104DFA000D000000008718CF0600000000431D596F
:0C4E0A001D341E931D9D1D741D2F000003
:00000001FF
